{
  "contractName": "ChainTraze",
  "abi": [
    {
      "anonymous": false,
      "inputs": [
        {
          "indexed": false,
          "name": "id",
          "type": "string"
        },
        {
          "indexed": false,
          "name": "x",
          "type": "uint256"
        },
        {
          "indexed": false,
          "name": "y",
          "type": "uint256"
        }
      ],
      "name": "Position",
      "type": "event"
    },
    {
      "anonymous": false,
      "inputs": [
        {
          "indexed": false,
          "name": "message",
          "type": "string"
        }
      ],
      "name": "Error",
      "type": "event"
    },
    {
      "constant": true,
      "inputs": [
        {
          "name": "x",
          "type": "uint256"
        },
        {
          "name": "y",
          "type": "uint256"
        }
      ],
      "name": "getPositionContent",
      "outputs": [
        {
          "name": "",
          "type": "string"
        }
      ],
      "payable": false,
      "stateMutability": "view",
      "type": "function"
    },
    {
      "constant": false,
      "inputs": [
        {
          "name": "id",
          "type": "string"
        }
      ],
      "name": "register",
      "outputs": [
        {
          "name": "xposition",
          "type": "uint256"
        },
        {
          "name": "yposition",
          "type": "uint256"
        }
      ],
      "payable": false,
      "stateMutability": "nonpayable",
      "type": "function"
    }
  ],
  "bytecode": "0x6060604052341561000f57600080fd5b6108448061001e6000396000f30060606040526004361061004c576000357c0100000000000000000000000000000000000000000000000000000000900463ffffffff1680632f6527c414610051578063f2c298be146100f6575b600080fd5b341561005c57600080fd5b61007b600480803590602001909190803590602001909190505061016e565b6040518080602001828103825283818151815260200191508051906020019080838360005b838110156100bb5780820151818401526020810190506100a0565b50505050905090810190601f1680156100e85780820380516001836020036101000a031916815260200191505b509250505060405180910390f35b341561010157600080fd5b610151600480803590602001908201803590602001908080601f01602080910402602001604051908101604052809392919081815260200183838082843782019150505050505091905050610238565b604051808381526020018281526020019250505060405180910390f35b61017661075f565b6000610182848461064e565b9050600181620f42408110151561019557fe5b018054600181600116156101000203166002900480601f01602080910402602001604051908101604052809291908181526020018280546001816001161561010002031660029004801561022a5780601f106101ff5761010080835404028352916020019161022a565b820191906000526020600020905b81548152906001019060200180831161020d57829003601f168201915b505050505091505092915050565b600080600080620f4242856040518082805190602001908083835b6020831015156102785780518252602082019150602081019050602083039250610253565b6001836020036101000a038019825116818451168082178552505050505050905001915050908152602001604051809103902060009054906101000a900473ffffffffffffffffffffffffffffffffffffffff169150600073ffffffffffffffffffffffffffffffffffffffff168273ffffffffffffffffffffffffffffffffffffffff16141515610371577f08c379a0afcc32b1a39302f7cb8073359698411ab5fd6e3edb2c02c0b5fba8aa6040518080602001828103825260118152602001807f696420616c72656164792065786973747300000000000000000000000000000081525060200191505060405180910390a1610647565b61037961065f565b809450819550505061038b848461064e565b905084600182620f42408110151561039f57fe5b0190805190602001906103b3929190610773565b507f29a79786d349ca612c0002293026df60d209457915b596a4ece7a3cccc93af198585856040518080602001848152602001838152602001828103825285818151815260200191508051906020019080838360005b83811015610424578082015181840152602081019050610409565b50505050905090810190601f1680156104515780820380516001836020036101000a031916815260200191505b5094505050505060405180910390a184620f424160003373ffffffffffffffffffffffffffffffffffffffff1673ffffffffffffffffffffffffffffffffffffffff16815260200190815260200160002090805190602001906104b5929190610773565b5033620f4242866040518082805190602001908083835b6020831015156104f157805182526020820191506020810190506020830392506104cc565b6001836020036101000a038019825116818451168082178552505050505050905001915050908152602001604051809103902060006101000a81548173ffffffffffffffffffffffffffffffffffffffff021916908373ffffffffffffffffffffffffffffffffffffffff16021790555083620f4243866040518082805190602001908083835b60208310151561059d5780518252602082019150602081019050602083039250610578565b6001836020036101000a03801982511681845116808217855250505050505090500191505090815260200160405180910390208190555082620f4244866040518082805190602001908083835b60208310151561060f57805182526020820191506020810190506020830392506105ea565b6001836020036101000a0380198251168184511680821785525050505050509050019150509081526020016040518091039020819055505b5050915091565b6000826103e8830201905092915050565b60008060008060008060008094505b6103e88510156106ed57600093505b6103e88410156106e057610691848661064e565b9250600183620f4240811015156106a457fe5b01915081805460018160011615610100020316600290049050905060008114156106d357839650849550610756565b838060010194505061067d565b848060010195505061066e565b7f08c379a0afcc32b1a39302f7cb8073359698411ab5fd6e3edb2c02c0b5fba8aa6040518080602001828103825260178152602001807f6e6f20656d70747920706f736974696f6e20666f756e6400000000000000000081525060200191505060405180910390a15b50505050509091565b602060405190810160405280600081525090565b828054600181600116156101000203166002900490600052602060002090601f016020900481019282601f106107b457805160ff19168380011785556107e2565b828001600101855582156107e2579182015b828111156107e15782518255916020019190600101906107c6565b5b5090506107ef91906107f3565b5090565b61081591905b808211156108115760008160009055506001016107f9565b5090565b905600a165627a7a72305820ae415ceaea3c99324c948d9f0bd317700cfdcfd06585c147ed0c4728619995e00029",
  "source": "pragma solidity ^0.4.19;\n\ncontract ChainTraze {\n    \n    uint constant X_DIM = 1000;\n    uint constant Y_DIM = 1000;\n    uint constant FIELD_SIZE = X_DIM*Y_DIM;\n    \n    mapping (address => int256) balances;\n    \n    string[FIELD_SIZE] field;\n\n    mapping (address => string) addressToId;\n    mapping (string => address) idToAddress;\n    mapping (string => uint) xpositions;\n    mapping (string => uint) ypositions;\n    \n    event Position(string id, uint x, uint y);\n    event Error(string message);\n    \n    function computeIndex(uint x, uint y) pure internal returns(uint index) {\n        index = y * X_DIM + x;\n    }\n    \n    \n    function findStartPosition() view internal returns(uint xposition, uint yposition) {\n        for(uint y = 0; y < Y_DIM; y++) {\n            for(uint x = 0; x < X_DIM; x++) {\n                uint index = computeIndex(x, y);\n                string storage posContent = field[index];\n                uint len = bytes(posContent).length;\n                if(len == 0) {\n                    xposition = x;\n                    yposition = y;\n                    return;\n                }\n            }\n        }\n        \n        Error(\"no empty position found\");\n    }\n    \n    function getPositionContent(uint x, uint y) public view returns(string) {\n        uint index = computeIndex(x, y);\n        return field[index];\n    }\n    \n    function register(string id) public returns(uint xposition, uint yposition) {\n        address existingAddress = idToAddress[id];\n        if(existingAddress != address(0x0)) {\n            Error(\"id already exists\");\n        }\n        else {\n            (xposition, yposition) = findStartPosition();\n            uint index = computeIndex(xposition, yposition);\n            field[index] = id;\n\n            Position(id, xposition, yposition);\n            \n            addressToId[msg.sender] = id;\n            idToAddress[id] = msg.sender;\n            xpositions[id] = xposition;\n            ypositions[id] = yposition;\n        }\n    }\n}\n",
  "sourcePath": "/Users/oliver/dev/ethereum/truffle/metacoin/contracts/ChainTraze.sol",
  "compiler": {
    "name": "solc",
    "version": "0.4.19+commit.c4cbbb05.Emscripten.clang"
  },
  "schemaVersion": "2.0.0",
  "updatedAt": "2018-04-07T15:35:53.752Z"
}