{
  "contractName": "CoinCaller",
  "abi": [
    {
      "anonymous": false,
      "inputs": [
        {
          "indexed": false,
          "name": "message",
          "type": "string"
        }
      ],
      "name": "Error",
      "type": "event"
    },
    {
      "constant": false,
      "inputs": [
        {
          "name": "coinContractAddress",
          "type": "address"
        },
        {
          "name": "receiver",
          "type": "address"
        },
        {
          "name": "amount",
          "type": "int256"
        }
      ],
      "name": "sendCoin",
      "outputs": [],
      "payable": false,
      "stateMutability": "nonpayable",
      "type": "function"
    },
    {
      "constant": false,
      "inputs": [
        {
          "name": "coinContractAddress",
          "type": "address"
        },
        {
          "name": "receiver",
          "type": "address"
        },
        {
          "name": "amount",
          "type": "int256"
        }
      ],
      "name": "sendCoinDelegate",
      "outputs": [],
      "payable": false,
      "stateMutability": "nonpayable",
      "type": "function"
    }
  ],
  "bytecode": "0x6060604052341561000f57600080fd5b6103628061001e6000396000f30060606040526004361061004c576000357c0100000000000000000000000000000000000000000000000000000000900463ffffffff16806351b8e51914610051578063756a61ff146100b2575b600080fd5b341561005c57600080fd5b6100b0600480803573ffffffffffffffffffffffffffffffffffffffff1690602001909190803573ffffffffffffffffffffffffffffffffffffffff16906020019091908035906020019091905050610113565b005b34156100bd57600080fd5b610111600480803573ffffffffffffffffffffffffffffffffffffffff1690602001909190803573ffffffffffffffffffffffffffffffffffffffff169060200190919080359060200190919050506101d4565b005b60008390508073ffffffffffffffffffffffffffffffffffffffff1663bc9e7d7f84846040518363ffffffff167c0100000000000000000000000000000000000000000000000000000000028152600401808373ffffffffffffffffffffffffffffffffffffffff1673ffffffffffffffffffffffffffffffffffffffff16815260200182815260200192505050600060405180830381600087803b15156101ba57600080fd5b6102c65a03f115156101cb57600080fd5b50505050505050565b8273ffffffffffffffffffffffffffffffffffffffff1660405180807f73656e64436f696e28616464726573732c20696e743235362900000000000000815250601901905060405180910390207c0100000000000000000000000000000000000000000000000000000000900483836040518363ffffffff167c0100000000000000000000000000000000000000000000000000000000028152600401808373ffffffffffffffffffffffffffffffffffffffff1673ffffffffffffffffffffffffffffffffffffffff168152602001828152602001925050506000604051808303818661646e5a03f4925050501515610331577f08c379a0afcc32b1a39302f7cb8073359698411ab5fd6e3edb2c02c0b5fba8aa60405180806020018281038252601a8152602001807f64656c656761746563616c6c20646964206e6f7420776f726b2100000000000081525060200191505060405180910390a15b5050505600a165627a7a723058203d9da553464555a428ac00eed4504f99fa3e01c77bed6cc6009953b7340425d10029",
  "source": "pragma solidity ^0.4.17;\n\nimport \"./MetaCoin.sol\";\n\ncontract CoinCaller{\n\n\tevent Error(string message);\n\n\n\tfunction sendCoin(address coinContractAddress, address receiver, int amount) external {\n\t\tMetaCoin m = MetaCoin(coinContractAddress);\n\t\tm.sendCoin(receiver, amount);\n\t}\n\n\tfunction sendCoinDelegate(address coinContractAddress, address receiver, int amount) external {\n\t\tif(!coinContractAddress.delegatecall(bytes4(keccak256(\"sendCoin(address, int256)\")), receiver,  amount)) {\n\t\t\tError(\"delegatecall did not work!\");\n\t\t}\n\t}\n}\n",
  "sourcePath": "/Users/oliver/dev/ethereum/truffle/metacoin/contracts/CoinCaller.sol",
  "compiler": {
    "name": "solc",
    "version": "0.4.19+commit.c4cbbb05.Emscripten.clang"
  },
  "schemaVersion": "2.0.0",
  "updatedAt": "2018-03-31T12:38:22.795Z"
}