{
  "contractName": "CoinCaller",
  "abi": [
    {
      "constant": false,
      "inputs": [
        {
          "name": "coinContractAddress",
          "type": "address"
        },
        {
          "name": "receiver",
          "type": "address"
        },
        {
          "name": "amount",
          "type": "uint256"
        }
      ],
      "name": "sendCoin",
      "outputs": [],
      "payable": false,
      "stateMutability": "nonpayable",
      "type": "function"
    }
  ],
  "bytecode": "0x6060604052341561000f57600080fd5b6101a68061001e6000396000f300606060405260043610610041576000357c0100000000000000000000000000000000000000000000000000000000900463ffffffff1680630b40bd8814610046575b600080fd5b341561005157600080fd5b6100a5600480803573ffffffffffffffffffffffffffffffffffffffff1690602001909190803573ffffffffffffffffffffffffffffffffffffffff169060200190919080359060200190919050506100a7565b005b60008390508073ffffffffffffffffffffffffffffffffffffffff1663bc9e7d7f8460016000604051602001526040518363ffffffff167c0100000000000000000000000000000000000000000000000000000000028152600401808373ffffffffffffffffffffffffffffffffffffffff1673ffffffffffffffffffffffffffffffffffffffff16815260200182815260200192505050602060405180830381600087803b151561015857600080fd5b6102c65a03f1151561016957600080fd5b5050506040518051905050505050505600a165627a7a72305820ccf5fbea433913bf6fba233b35900c7a9f5d57cbff3a16e325ceba14f00cfe7b0029",
  "source": "pragma solidity ^0.4.17;\n\nimport \"./MetaCoin.sol\";\n\ncontract CoinCaller{\n\n\tfunction sendCoin(address coinContractAddress, address receiver, uint amount) external {\n\t\tMetaCoin m = MetaCoin(coinContractAddress);\n\t\tm.sendCoin(receiver, 1);\n\t}\n}\n",
  "sourcePath": "/Users/oliver/dev/ethereum/truffle/metacoin/contracts/CoinCaller.sol",
  "compiler": {
    "name": "solc",
    "version": "0.4.19+commit.c4cbbb05.Emscripten.clang"
  },
  "schemaVersion": "2.0.0",
  "updatedAt": "2018-03-29T06:22:50.825Z"
}