{
  "contractName": "CoinCaller",
  "abi": [
    {
      "anonymous": false,
      "inputs": [
        {
          "indexed": false,
          "name": "message",
          "type": "string"
        }
      ],
      "name": "Error",
      "type": "event"
    },
    {
      "constant": false,
      "inputs": [
        {
          "name": "coinContractAddress",
          "type": "address"
        },
        {
          "name": "receiver",
          "type": "address"
        },
        {
          "name": "amount",
          "type": "int256"
        }
      ],
      "name": "sendCoin",
      "outputs": [],
      "payable": false,
      "stateMutability": "nonpayable",
      "type": "function"
    },
    {
      "constant": false,
      "inputs": [
        {
          "name": "coinContractAddress",
          "type": "address"
        },
        {
          "name": "receiver",
          "type": "address"
        },
        {
          "name": "amount",
          "type": "int256"
        }
      ],
      "name": "sendCoinDelegate",
      "outputs": [],
      "payable": false,
      "stateMutability": "nonpayable",
      "type": "function"
    },
    {
      "constant": false,
      "inputs": [
        {
          "name": "coinContractAddress",
          "type": "address"
        }
      ],
      "name": "delegateTest",
      "outputs": [],
      "payable": false,
      "stateMutability": "nonpayable",
      "type": "function"
    },
    {
      "constant": false,
      "inputs": [
        {
          "name": "coinContractAddress",
          "type": "address"
        }
      ],
      "name": "noDelegateTest",
      "outputs": [],
      "payable": false,
      "stateMutability": "nonpayable",
      "type": "function"
    }
  ],
  "bytecode": "0x6060604052341561000f57600080fd5b61058b8061001e6000396000f300606060405260043610610062576000357c0100000000000000000000000000000000000000000000000000000000900463ffffffff16806304466fe71461006757806351b8e519146100a0578063756a61ff1461010157806388aa8c3b14610162575b600080fd5b341561007257600080fd5b61009e600480803573ffffffffffffffffffffffffffffffffffffffff1690602001909190505061019b565b005b34156100ab57600080fd5b6100ff600480803573ffffffffffffffffffffffffffffffffffffffff1690602001909190803573ffffffffffffffffffffffffffffffffffffffff1690602001909190803590602001909190505061021b565b005b341561010c57600080fd5b610160600480803573ffffffffffffffffffffffffffffffffffffffff1690602001909190803573ffffffffffffffffffffffffffffffffffffffff169060200190919080359060200190919050506102dc565b005b341561016d57600080fd5b610199600480803573ffffffffffffffffffffffffffffffffffffffff1690602001909190505061043e565b005b60008190508073ffffffffffffffffffffffffffffffffffffffff1663b3278d716040518163ffffffff167c0100000000000000000000000000000000000000000000000000000000028152600401600060405180830381600087803b151561020357600080fd5b6102c65a03f1151561021457600080fd5b5050505050565b60008390508073ffffffffffffffffffffffffffffffffffffffff1663bc9e7d7f84846040518363ffffffff167c0100000000000000000000000000000000000000000000000000000000028152600401808373ffffffffffffffffffffffffffffffffffffffff1673ffffffffffffffffffffffffffffffffffffffff16815260200182815260200192505050600060405180830381600087803b15156102c257600080fd5b6102c65a03f115156102d357600080fd5b50505050505050565b8273ffffffffffffffffffffffffffffffffffffffff1660405180807f73656e64436f696e28616464726573732c696e74323536290000000000000000815250601801905060405180910390207c0100000000000000000000000000000000000000000000000000000000900483836040518363ffffffff167c0100000000000000000000000000000000000000000000000000000000028152600401808373ffffffffffffffffffffffffffffffffffffffff1673ffffffffffffffffffffffffffffffffffffffff168152602001828152602001925050506000604051808303818661646e5a03f4925050501515610439577f08c379a0afcc32b1a39302f7cb8073359698411ab5fd6e3edb2c02c0b5fba8aa60405180806020018281038252601e8152602001807f73656e64436f696e44656c656761746520646964206e6f7420776f726b21000081525060200191505060405180910390a15b505050565b8073ffffffffffffffffffffffffffffffffffffffff1660405180807f6a75737461546573742829000000000000000000000000000000000000000000815250600b01905060405180910390207c010000000000000000000000000000000000000000000000000000000090046040518163ffffffff167c01000000000000000000000000000000000000000000000000000000000281526004016000604051808303818661646e5a03f492505050151561055c577f08c379a0afcc32b1a39302f7cb8073359698411ab5fd6e3edb2c02c0b5fba8aa60405180806020018281038252601a8152602001807f64656c65676174655465737420646964206e6f7420776f726b2100000000000081525060200191505060405180910390a15b505600a165627a7a723058209dc45fa0ec295f5e02ef495082dfa48feca212c6a35bea593ce55562ff90cfd70029",
  "source": "pragma solidity ^0.4.17;\n\nimport \"./MetaCoin.sol\";\n\ncontract CoinCaller{\n\n\tevent Error(string message);\n\n\tfunction sendCoin(address coinContractAddress, address receiver, int amount) external {\n\t\tMetaCoin m = MetaCoin(coinContractAddress);\n\t\tm.sendCoin(receiver, amount);\n\t}\n\n\tfunction sendCoinDelegate(address coinContractAddress, address receiver, int amount) external {\n\t\tif(!coinContractAddress.delegatecall(bytes4(keccak256(\"sendCoin(address,int256)\")), receiver,  amount)) {\n\t\t\tError(\"sendCoinDelegate did not work!\");\n\t\t}\n\t}\n\n\tfunction delegateTest(address coinContractAddress) external {\n\t\tif(!coinContractAddress.delegatecall(bytes4(keccak256(\"justaTest()\")))) {\n\t\t\tError(\"delegateTest did not work!\");\n\t\t}\n\t}\n\n\tfunction noDelegateTest(address coinContractAddress) external {\n\t\tMetaCoin m = MetaCoin(coinContractAddress);\n\t\tm.justaTest();\n\t}\n}\n",
  "sourcePath": "/Users/oliver/dev/ethereum/truffle/metacoin/contracts/CoinCaller.sol",
  "compiler": {
    "name": "solc",
    "version": "0.4.19+commit.c4cbbb05.Emscripten.clang"
  },
  "schemaVersion": "2.0.0",
  "updatedAt": "2018-04-02T08:14:30.911Z"
}