{
  "contractName": "CoinCaller",
  "abi": [
    {
      "constant": false,
      "inputs": [
        {
          "name": "coinContractAddress",
          "type": "address"
        },
        {
          "name": "receiver",
          "type": "address"
        },
        {
          "name": "amount",
          "type": "uint256"
        }
      ],
      "name": "sendCoin",
      "outputs": [],
      "payable": false,
      "stateMutability": "nonpayable",
      "type": "function"
    }
  ],
  "bytecode": "0x6060604052341561000f57600080fd5b6101c78061001e6000396000f300606060405260043610610041576000357c0100000000000000000000000000000000000000000000000000000000900463ffffffff1680630b40bd8814610046575b600080fd5b341561005157600080fd5b6100a5600480803573ffffffffffffffffffffffffffffffffffffffff1690602001909190803573ffffffffffffffffffffffffffffffffffffffff169060200190919080359060200190919050506100a7565b005b8273ffffffffffffffffffffffffffffffffffffffff1660405180807f73656e64436f696e28616464726573732c75696e742900000000000000000000815250601601905060405180910390207c0100000000000000000000000000000000000000000000000000000000900483836040518363ffffffff167c0100000000000000000000000000000000000000000000000000000000028152600401808373ffffffffffffffffffffffffffffffffffffffff1673ffffffffffffffffffffffffffffffffffffffff168152602001828152602001925050506000604051808303818661646e5a03f492505050505050505600a165627a7a72305820bd55d72e6d46a9b8d2419b36eaff45640f23efb6d7bcc302f3f28cd2eac28f450029",
  "source": "pragma solidity ^0.4.17;\n\nimport \"./MetaCoin.sol\";\n\ncontract CoinCaller{\n\n\tfunction sendCoin(address coinContractAddress, address receiver, uint amount) external {\n\t\tcoinContractAddress.delegatecall(bytes4(keccak256(\"sendCoin(address,uint)\")),receiver, amount);\n\t}\n}\n",
  "sourcePath": "/Users/oliver/dev/ethereum/truffle/metacoin/contracts/CoinCaller.sol",
  "compiler": {
    "name": "solc",
    "version": "0.4.19+commit.c4cbbb05.Emscripten.clang"
  },
  "schemaVersion": "2.0.0",
  "updatedAt": "2018-03-28T09:43:18.816Z"
}