{
  "contractName": "ConvertLib",
  "abi": [
    {
      "constant": true,
      "inputs": [
        {
          "name": "amount",
          "type": "int256"
        },
        {
          "name": "conversionRate",
          "type": "int256"
        }
      ],
      "name": "convert",
      "outputs": [
        {
          "name": "convertedAmount",
          "type": "int256"
        }
      ],
      "payable": false,
      "stateMutability": "pure",
      "type": "function"
    }
  ],
  "bytecode": "0x6060604052341561000f57600080fd5b60b08061001d6000396000f300606060405260043610603f576000357c0100000000000000000000000000000000000000000000000000000000900463ffffffff1680632d2c1d80146044575b600080fd5b606160048080359060200190919080359060200190919050506077565b6040518082815260200191505060405180910390f35b60008183029050929150505600a165627a7a72305820e7baa0f43af29ba667522a3e770da117328e8ce1ea224fcb48903051ddb18f730029",
  "source": "pragma solidity ^0.4.4;\n\nlibrary ConvertLib{\n\tfunction convert(int amount,int conversionRate) public pure returns (int convertedAmount)\n\t{\n\t\treturn amount * conversionRate;\n\t}\n}\n",
  "sourcePath": "/Users/oliver/dev/ethereum/truffle/metacoin/contracts/ConvertLib.sol",
  "compiler": {
    "name": "solc",
    "version": "0.4.19+commit.c4cbbb05.Emscripten.clang"
  },
  "schemaVersion": "2.0.0",
  "updatedAt": "2018-03-28T09:03:48.840Z"
}