{
  "contractName": "JustForTestingCaller",
  "abi": [
    {
      "constant": false,
      "inputs": [
        {
          "name": "contractAddress",
          "type": "address"
        }
      ],
      "name": "directCall",
      "outputs": [],
      "payable": false,
      "stateMutability": "nonpayable",
      "type": "function"
    },
    {
      "constant": false,
      "inputs": [
        {
          "name": "contractAddress",
          "type": "address"
        }
      ],
      "name": "delegateCall",
      "outputs": [],
      "payable": false,
      "stateMutability": "nonpayable",
      "type": "function"
    }
  ],
  "bytecode": "0x6060604052341561000f57600080fd5b61022c8061001e6000396000f30060606040526004361061004c576000357c0100000000000000000000000000000000000000000000000000000000900463ffffffff1680633f93ff0b14610051578063a635f01d1461008a575b600080fd5b341561005c57600080fd5b610088600480803573ffffffffffffffffffffffffffffffffffffffff169060200190919050506100c3565b005b341561009557600080fd5b6100c1600480803573ffffffffffffffffffffffffffffffffffffffff16906020019091905050610143565b005b60008190508073ffffffffffffffffffffffffffffffffffffffff1663826926796040518163ffffffff167c0100000000000000000000000000000000000000000000000000000000028152600401600060405180830381600087803b151561012b57600080fd5b6102c65a03f1151561013c57600080fd5b5050505050565b8073ffffffffffffffffffffffffffffffffffffffff1660405180807f646f536f6d657468696e67282900000000000000000000000000000000000000815250600d01905060405180910390207c010000000000000000000000000000000000000000000000000000000090046040518163ffffffff167c01000000000000000000000000000000000000000000000000000000000281526004016000604051808303818661646e5a03f49250505015156101fd57600080fd5b505600a165627a7a723058208cf361a613ae725cd5ecdbd6dc67645db21bf3784b8c4b6089234f9028f4f1880029",
  "source": "pragma solidity ^0.4.17;\n\nimport \"./JustForTesting.sol\";\n\ncontract JustForTestingCaller{\n\n\tfunction directCall(address contractAddress) external {\n\t\tJustForTesting m = JustForTesting(contractAddress);\n\t\tm.doSomething();\n\t}\n\n\tfunction delegateCall(address contractAddress) external {\n\t\tif(!contractAddress.delegatecall(bytes4(keccak256(\"doSomething()\")))) {\n\t\t\trevert();\n\t\t}\n\t}\n}\n",
  "sourcePath": "/Users/oliver/dev/ethereum/truffle/metacoin/contracts/JustForTestingCaller.sol",
  "compiler": {
    "name": "solc",
    "version": "0.4.19+commit.c4cbbb05.Emscripten.clang"
  },
  "schemaVersion": "2.0.0",
  "updatedAt": "2018-04-02T08:14:31.201Z"
}