{
  "contractName": "JustForTesting",
  "abi": [
    {
      "anonymous": false,
      "inputs": [
        {
          "indexed": false,
          "name": "text",
          "type": "string"
        }
      ],
      "name": "log_text",
      "type": "event"
    },
    {
      "constant": false,
      "inputs": [],
      "name": "doSomething",
      "outputs": [],
      "payable": false,
      "stateMutability": "nonpayable",
      "type": "function"
    }
  ],
  "bytecode": "0x60606040523415600e57600080fd5b60ec8061001c6000396000f300606060405260043610603f576000357c0100000000000000000000000000000000000000000000000000000000900463ffffffff16806382692679146044575b600080fd5b3415604e57600080fd5b60546056565b005b7febc7c7422a74095953fb1e1a47cb81c4537744b8e9cf6f8a292ff4757390c2306040518080602001828103825260068152602001807f48616c6c6f21000000000000000000000000000000000000000000000000000081525060200191505060405180910390a15600a165627a7a723058209af0f4e505338df334cf110b22930cfd7a67a1487f5c1dd92a52a3b9d83c313f0029",
  "source": "pragma solidity ^0.4.17;\n\ncontract JustForTesting {\n\tevent log_text(string text);\n\n\tfunction doSomething() public {\n\t\tlog_text(\"Hallo!\");\n\t}\n}\n",
  "sourcePath": "/Users/oliver/dev/ethereum/truffle/metacoin/contracts/JustForTesting.sol",
  "compiler": {
    "name": "solc",
    "version": "0.4.19+commit.c4cbbb05.Emscripten.clang"
  },
  "schemaVersion": "2.0.0",
  "updatedAt": "2018-04-02T08:14:31.200Z"
}