{
  "contractName": "MetaCoin",
  "abi": [
    {
      "inputs": [],
      "payable": false,
      "stateMutability": "nonpayable",
      "type": "constructor"
    },
    {
      "anonymous": false,
      "inputs": [
        {
          "indexed": true,
          "name": "_from",
          "type": "address"
        },
        {
          "indexed": true,
          "name": "_to",
          "type": "address"
        },
        {
          "indexed": false,
          "name": "_value",
          "type": "int256"
        }
      ],
      "name": "Transfer",
      "type": "event"
    },
    {
      "anonymous": false,
      "inputs": [
        {
          "indexed": true,
          "name": "receiver",
          "type": "address"
        }
      ],
      "name": "log_receiver",
      "type": "event"
    },
    {
      "anonymous": false,
      "inputs": [
        {
          "indexed": false,
          "name": "text",
          "type": "string"
        }
      ],
      "name": "log_text",
      "type": "event"
    },
    {
      "constant": false,
      "inputs": [
        {
          "name": "receiver",
          "type": "address"
        },
        {
          "name": "amount",
          "type": "int256"
        }
      ],
      "name": "sendCoin",
      "outputs": [],
      "payable": false,
      "stateMutability": "nonpayable",
      "type": "function"
    },
    {
      "constant": false,
      "inputs": [],
      "name": "justaTest",
      "outputs": [],
      "payable": false,
      "stateMutability": "nonpayable",
      "type": "function"
    },
    {
      "constant": true,
      "inputs": [
        {
          "name": "addr",
          "type": "address"
        }
      ],
      "name": "getBalance",
      "outputs": [
        {
          "name": "",
          "type": "int256"
        }
      ],
      "payable": false,
      "stateMutability": "view",
      "type": "function"
    }
  ],
  "bytecode": "0x6060604052341561000f57600080fd5b6127106000803273ffffffffffffffffffffffffffffffffffffffff1673ffffffffffffffffffffffffffffffffffffffff16815260200190815260200160002081905550610322806100636000396000f300606060405260043610610057576000357c0100000000000000000000000000000000000000000000000000000000900463ffffffff168063b3278d711461005c578063bc9e7d7f14610071578063f8b2cb4f146100b3575b600080fd5b341561006757600080fd5b61006f610100565b005b341561007c57600080fd5b6100b1600480803573ffffffffffffffffffffffffffffffffffffffff1690602001909190803590602001909190505061016a565b005b34156100be57600080fd5b6100ea600480803573ffffffffffffffffffffffffffffffffffffffff169060200190919050506102ae565b6040518082815260200191505060405180910390f35b7febc7c7422a74095953fb1e1a47cb81c4537744b8e9cf6f8a292ff4757390c2306040518080602001828103825260068152602001807f48616c6c6f21000000000000000000000000000000000000000000000000000081525060200191505060405180910390a1565b8173ffffffffffffffffffffffffffffffffffffffff167f9c780f5fb6febcb5cb36d683a3895eb510e33fbb887fa94a79fe912785cba79260405160405180910390a2806000803373ffffffffffffffffffffffffffffffffffffffff1673ffffffffffffffffffffffffffffffffffffffff16815260200190815260200160002060008282540392505081905550806000808473ffffffffffffffffffffffffffffffffffffffff1673ffffffffffffffffffffffffffffffffffffffff168152602001908152602001600020600082825401925050819055508173ffffffffffffffffffffffffffffffffffffffff163373ffffffffffffffffffffffffffffffffffffffff167f8b0c34a52f9e28d78caaa7066cd047b398dae74941a208b77777420f492bd7e1836040518082815260200191505060405180910390a35050565b60008060008373ffffffffffffffffffffffffffffffffffffffff1673ffffffffffffffffffffffffffffffffffffffff1681526020019081526020016000205490509190505600a165627a7a723058204819c272eb751b9ced9e6787170d129948ce288cf345c0bf6eb9c2288fdd1c400029",
  "source": "pragma solidity ^0.4.17;\n\n// This is just a simple example of a coin-like contract.\n// It is not standards compatible and cannot be expected to talk to other\n// coin/token contracts. If you want to create a standards-compliant\n// token, see: https://github.com/ConsenSys/Tokens. Cheers!\n\ncontract MetaCoin {\n\tmapping (address => int) balances;\n\n\tevent Transfer(address indexed _from, address indexed _to, int _value);\n\n\tevent log_receiver(address indexed receiver);\n\tevent log_text(string text);\n\n\tfunction MetaCoin() public {\n\t\tbalances[tx.origin] = 10000;\n\t}\n\n\tfunction sendCoin(address receiver,int amount) public {\n\t\tlog_receiver(receiver);\n\t\tbalances[msg.sender] -= amount;\n\t\tbalances[receiver] += amount;\n\t\tTransfer(msg.sender, receiver, amount);\n\t}\n\n\tfunction justaTest() public {\n\t\tlog_text(\"Hallo!\");\n\t}\n\n\tfunction getBalance(address addr) public view returns(int) {\n\t\treturn balances[addr];\n\t}\n}\n",
  "sourcePath": "/Users/oliver/dev/ethereum/truffle/metacoin/contracts/MetaCoin.sol",
  "compiler": {
    "name": "solc",
    "version": "0.4.19+commit.c4cbbb05.Emscripten.clang"
  },
  "schemaVersion": "2.0.0",
  "updatedAt": "2018-04-02T08:14:30.546Z"
}